:100E5A000A128A11302F0313831686140615861573
:100E6A0006168616081088100811881108128812AA
:100E7A00081383120608A50025080239A600A60C45
:100E8A0026080139A60025080439A700A70CA70CD3
:100E9A0027080139A70025080839A800A80CA80CBA
:100EAA00A80C28080139A80025081039A900A90C9E
:100EBA00A90CA90CA90C29080139A900250820396F
:100ECA00B000B00CB00CB00CB00CB00C300801394A
:100EDA00B00025080239B100B10CB1093108013955
:100EEA00B10025080439B200B20CB20CB2093208BA
:100EFA000139B20025080839B300B30CB30CB30C9E
:100F0A00B30933080139B30025081039B400B40C09
:100F1A00B40CB40CB40CB40934080139B400250873
:100F2A002039B500B50CB50CB50CB50CB50CB50926
:100F3A0035080139B500880131083005B600310895
:100F4A002905B70036083704B800310832052805E4
:100F5A00B90038083904C0004018081427083305B6
:100F6A00C10026083205C20041084204C30028080D
:100F7A0034053505C40043084404C50045188814DF
:100F8A0026083405C6003208330534053505C7007E
:100F9A0046084704C80048180815310832053305C1
:100FAA003405C90036084904D000501888152708A6
:100FBA0034053505D100260834053505D200510817
:100FCA005204D300531808162608270528052905B0
:100FDA003005D40054180817290831052705D5000B
:100FEA003408300531053205D6005508D604D70035
:060FFA00571888163F2F76
:02400E00B13FC0
:00000001FF
